:020000040800F2
:100000000000022041170008CF050008D1050008B4
:10001000D3050008D5050008D7050008000000003A
:10002000000000000000000000000000D9050008EA
:10003000DB05000800000000DD050008DF05000802
:1000400091170008911700089117000891170008F0
:1000500091170008911700089117000891170008E0
:1000600091170008911700089117000891170008D0
:1000700091170008911700089117000891170008C0
:100080009117000891170008911700080000000060
:1000900000000000000000000000000091170008B0
:1000A0009117000891170008911700089117000890
:1000B0009117000891170008911700089117000880
:1000C0009117000891170008911700089117000870
:1000D0009117000891170008911700080000000010
:1000E0009117000891170008911700080000000000
:1000F0000000000000000000000000009117000850
:1001000000000000911700089117000891170008DF
:1001100000000000000000000000000000000000DF
:10012000911700089117000891170008911700080F
:10013000911700080000000000000000000000000F
:1001400000000000000000000000000091170008FF
:1001500091170008911700089117000891170008DF
:10016000911700089117000800000000000000002F
:10017000000000000000000000000000000000007F
:1001800000000000911700080000000000000000BF
:08019000911700089117000807
:1001980010B5054C237833B9044B13B10448AFF3B9
:1001A80000800123237010BD0C0000200000000017
:1001B800EC17000808B5034B1BB103490348AFF31C
:1001C800008008BD0000000010000020EC170008A7
:1001D80053B94AB9002908BF00281CBF4FF0FF31A6
:1001E8004FF0FF3000F074B9ADF1080C6DE904CEA2
:1001F80000F006F8DDF804E0DDE9022304B07047FA
:100208002DE9F047089E04468846002B40F085807B
:100218008A42154648D9B2FA82F24AB1C2F1200799
:1002280001FA02F320FA07F7954047EA03089440D9
:100238004FEA154E230CB8FBFEF71FFA85FC0EFBA0
:10024800178843EA084307FB0CF1994209D9EB18D0
:1002580007F1FF3080F0E380994240F2E080023FEE
:100268002B445B1AA4B2B3FBFEF00EFB103344EA36
:10027800034400FB0CFCA44509D92C1900F1FF33F9
:1002880080F0CB80A44540F2C88002382C4440EA74
:100298000740A4EB0C0400271EB1D4400023C6E994
:1002A80000433946BDE8F087002A53D0B2FA82F2FB
:1002B800002A40F0B680491B4FEA154E1FFA85F810
:1002C8000127B1FBFEFC230C0EFB1C1143EA014382
:1002D80008FB0CF1994207D9EB180CF1FF3002D258
:1002E800994200F2EC808446591AA3B2B1FBFEF0A1
:1002F8000EFB101443EA044408FB00F8A04507D994
:100308002C1900F1FF3302D2A04500F2DC80184618
:10031800A4EB080440EA0C40BEE78B4208D9002E43
:1003280078D00027C6E9000138463946BDE8F0878D
:10033800B3FA83F77FB98B4202D3824200F2BD80C1
:10034800841A61EB030301209846002EA9D0C6E960
:100358000048A6E7FFDEC7F12005BB4022FA05FCEE
:100368004CEA030C01FA07F420FA05F821FA05F320
:100378004FEA1C4E48EA0404B3FBFEF9210C0EFBBD
:1003880019331FFA8CF841EA034309FB08FA9A4526
:1003980002FA07F200FA07F10BD91CEB030309F183
:1003A800FF3080F088809A4540F28580A9F10209E3
:1003B8006344A3EB0A03A4B2B3FBFEF00EFB1033B5
:1003C80044EA034400FB08F8A04508D91CEB0404E0
:1003D80000F1FF336BD2A04569D90238644440EA82
:1003E8000940A4EB0804A0FB02894C45C6464B46CD
:1003F80054D351D0002E69D0B1EB0E0264EB030444
:1004080004FA05F522FA07F3FC401D43C6E9005437
:10041800002746E73746304643E7184637E707469A
:100428001FE7C2F1200320FA03F7954001FA02F012
:1004380021FA03F34FEA154E3843010CB3FBFEF7DC
:100448001FFA85F80EFB173341EA034107FB08F34F
:100458008B4204FA02F407D9691807F1FF3C28D245
:100468008B4226D9023F2944CB1A81B2B3FBFEF056
:100478000EFB103341EA034100FB08F38B4207D916
:10048800691800F1FF3C10D28B420ED9023829447A
:10049800C91A40EA074714E74145ABD2B8EB020E48
:1004A80069EB0C0201381346A4E76046F0E71846EA
:1004B80095E76746D8E781467BE7384645E7ACF1DC
:1004C800020C2B4410E702382C4421E73746E8E6B3
:1004D800704700BF30B595B03022002108A801F060
:1004E80079F90024039404940594069407940194DC
:1004F8001B4B1A6C42F080521A641B6C03F0805339
:100508000193019B0294174B1A6842F440421A6007
:100518001B6803F440430293029B012308934FF4A2
:100528008033099302250E954FF480030F93192306
:100538001093C823119312950423139308A800F06D
:1005480051FB0F230393049505944FF480530693AE
:100558000794032103A800F08DFD15B030BD00BF3E
:10056800003802400070004008B500F095FFFFF722
:10057800B1FF00F0DFFF01F06BF80F48036842F6A7
:10058800E0625A63002100F0A9FA08E000224FF463
:1005980000510A4800F0F7FE022000F0A9FF0121EF
:1005A800074800F0E9FE0128F0D101224FF400517C
:1005B800024800F0E8FEEFE72C00002000080240A7
:1005C8000000024070477047FEE7FEE7FEE7FEE7DF
:1005D80070477047704708B500F078FF08BD000005
:1005E80082B0002100910B4B5A6C42F480425A644D
:1005F8005A6C02F480420092009A01911A6C42F0FF
:1006080080521A641B6C03F080530193019B02B063
:10061800704700BF0038024070B4036A23F001033A
:100628000362036A4668826922F073020C6844EA2E
:10063800020523F002028B6813430D4CA04209D037
:100648000B4CA0420DD0466085614A684263036244
:1006580070BC704723F00803CA68134323F00403EF
:10066800EEE726F440764A6932438E691643EAE794
:100678000000014030B4036A23F480730362036A04
:100688004568C26922F073020C68224323F40073A0
:100698008C6843EA04230F4CA04209D00D4CA042B9
:1006A8000ED04560C2614A68C263036230BC7047BD
:1006B80023F40063CC6843EA042323F48063EDE762
:1006C80025F440554C6945EA04158C6945EA04153A
:1006D800E7E700BF0000014030B4036A23F4805309
:1006E8000362036A4468C26922F4E6420D6842EA7A
:1006F800052223F400538D6843EA0533074DA842C9
:1007080006D04460C2614A680264036230BC704724
:1007180024F480444D6944EA8514F2E7000001405E
:1007280010B4036A046A24F001040462846924F0A2
:10073800F00444EA021223F00A030B4382610362C5
:100748005DF8044B704710B4036A23F0100303628A
:100758008469036A24F4704444EA023223F0A00353
:1007680043EA0113826103625DF8044B70478368B2
:1007780023F07003194341F0070181607047704707
:100788000368254A90420ED0B0F1804F0BD0A2F5F5
:100798007C42904207D002F58062904203D002F575
:1007A8008062904203D123F070034A6813431A4AC7
:1007B80090421AD0B0F1804F17D0A2F57C429042F7
:1007C80013D002F5806290420FD002F58062904209
:1007D8000BD002F59A32904207D002F5806290421F
:1007E80003D002F58062904203D123F44073CA68B3
:1007F800134323F080034A69134303608B68C36281
:100808000B688362044B984202D00123436170470E
:100818000B690363F9E700BF00000140B0B110B5F0
:10082800044690F83D3063B1022384F83D302146F8
:1008380051F8040BFFF7A4FF012384F83D30002092
:1008480010BD80F83C3000F0BDFEEDE70120704798
:10085800B0B110B5044690F83D3063B1022384F876
:100868003D30214651F8040BFFF78AFF012384F835
:100878003D30002010BD80F83C30FFF780FFEDE7E9
:100888000120704730B4036A23F010030362036A3F
:100898004468826922F4E6420D6842EA052223F0A0
:1008A80020038D6843EA05130E4DA84209D00D4D6B
:1008B800A8420ED0446082614A688263036230BCF9
:1008C800704723F08003CD6843EA051323F0400303
:1008D800EDE724F440644D6944EA85048D6944EAEF
:1008E8008504E7E70000014038B590F83C30012B5B
:1008F80066D00D460446012380F83C30022380F878
:100908003D300C2A1AD8DFE802F007191919201906
:1009180019193419191947000068FFF77DFE226874
:10092800936943F0080393612268936923F00403F1
:1009380093612268936929690B439361012384F8C1
:100948003D30002084F83C0038BD0068FFF79AFF6E
:100958002268936943F4006393612268936923F4DE
:100968008063936122689369296943EA012393614B
:10097800E4E70068FFF77EFE2268D36943F00803C6
:10098800D3612268D36923F00403D3612268D36951
:1009980029690B43D361D1E70068FFF79DFE226800
:1009A800D36943F40063D3612268D36923F4806375
:1009B800D3612268D369296943EA0123D361BDE77A
:1009C8000220C1E710B4846824F47F4442EA032378
:1009D8000B43234383605DF8044B704790F83C3029
:1009E800012B67D010B50446012380F83C30022360
:1009F80080F83D300268936823F47F4323F077033F
:100A080093600B68402B4BD013D9602B3ED025D96F
:100A1800702B2FD0B3F5005F19D1CB684A6889686D
:100A28000068FFF7CFFF2268936843F48043936020
:100A38000DE0102B04D008D9202B01D0302B06D183
:100A480019462068FFF793FE01E0002BF8D0012338
:100A580084F83D30002084F83C0010BD502BF6D1BE
:100A6800CA6849680068FFF75BFE50212068FFF7F5
:100A78007EFEECE7CB684A6889680068FFF7A2FF4A
:100A88002268936843F077039360E0E7CA6849688F
:100A98000068FFF758FE60212068FFF768FED6E778
:100AA800CA6849680068FFF73BFE40212068FFF7E5
:100AB8005EFECCE70220704710B401F01F0101234D
:100AC80003FA01F4036A23EA04030362036A8A400F
:100AD800134303625DF8044B7047000010B50446E9
:100AE80001220068FFF7E8FF23680A4A93420BD007
:100AF8002268936803F00703062B03D0136843F0BA
:100B080001031360002010BD5A6C42F400425A647D
:100B1800EEE700BF0000014090F83C30012B33D0D5
:100B280030B4012380F83C30022380F83D3003685C
:100B38005C689D6824F070040A6822435A60036860
:100B4800124A934212D0B3F1804F0FD0A2F57C42E3
:100B580093420BD002F58062934207D002F580627F
:100B6800934203D002F59A32934204D125F08005CE
:100B78004A6815439D60012380F83D30002380F8C2
:100B88003C30184630BC70470220704700000140D6
:100B980090F83C30012B22D0012380F83C30CB6800
:100BA80023F440738A68134323F480634A68134329
:100BB80023F400630A68134323F480530A69134338
:100BC80023F400534A69134323F48043CA69134347
:100BD80002685364002380F83C30184670470220AE
:100BE80070470000002800F0D98170B582B0044633
:100BF800036813F0010F3BD0A64B9B6803F00C036E
:100C0800042B2CD0A34B9B6803F00C03082B21D09A
:100C18006368B3F5803F4FD0B3F5A02F52D09D4BFA
:100C28001A6822F480321A601A6822F480221A6044
:100C38006368002B50D000F055FC0546954B1B68A7
:100C480013F4003F14D100F04DFC401B6428F5D983
:100C58000320AAE18F4B5B6813F4800FD8D08D4B2B
:100C68001B6813F4003F03D06368002B00F09881E1
:100C7800236813F0020F54D0864B9B6813F00C0FB7
:100C88003ED0844B9B6803F00C03082B33D0E368F9
:100C9800002B67D0804B01221A6000F023FC054628
:100CA8007C4B1B6813F0020F53D100F01BFC401B58
:100CB8000228F5D9032078E1764A136843F4803393
:100CC8001360B5E7734B1A6842F480221A601A68F9
:100CD80042F480321A60ABE700F004FC05466D4B25
:100CE8001B6813F4003FC3D000F0FCFB401B6428D2
:100CF800F5D9032059E1674B5B6813F4800FC6D11F
:100D0800644B1B6813F0020F03D0E368012B40F01B
:100D18004981604A136823F0F803216943EAC10353
:100D28001360236813F0080F40D0636963B35B4B0B
:100D380001221A6000F0D6FB0546564B5B6F13F094
:100D4800020F33D100F0CEFB401B0228F5D9032057
:100D58002BE1504A136823F0F803216943EAC103E1
:100D68001360DEE74C4B00221A6000F0BBFB05461F
:100D7800484B1B6813F0020FD3D000F0B3FB401BA5
:100D88000228F5D9032010E1444B00221A6000F034
:100D9800A9FB05463F4B5B6F13F0020F06D000F02E
:100DA800A1FB401B0228F5D90320FEE0236813F0BD
:100DB800040F78D0374B1B6C13F0805F33D10023BE
:100DC8000193344B1A6C42F080521A641B6C03F086
:100DD80080530193019B0125314B1B6813F4807FDD
:100DE80023D0A368012B34D0052B38D0294B1A6F98
:100DF80022F001021A671A6F22F004021A67A36828
:100E0800002B36D000F06EFB0646224B1B6F13F00A
:100E1800020F47D100F066FB801B41F288339842ED
:100E2800F3D90320C1E00025D6E71D4A136843F42F
:100E38008073136000F056FB0646194B1B6813F4C9
:100E4800807FCED100F04EFB801B0228F5D903200D
:100E5800ABE0104A136F43F001031367CFE70D4B64
:100E68001A6F42F004021A671A6F42F001021A67F9
:100E7800C5E700F037FB0646064B1B6F13F0020F61
:100E880010D000F02FFB801B41F288339842F3D931
:100E980003208AE00038024000004742800E4742A3
:100EA80000700040E5B9A369002B7DD0464A9268DE
:100EB80002F00C02082A51D0022B17D0434B002213
:100EC8001A6000F00FFB04463F4B1B6813F0007FCD
:100ED80042D000F007FB001B0228F5D9032064E08C
:100EE800394A136C23F080531364DCE7374B002234
:100EF8001A6000F0F7FA0546334B1B6813F0007FC1
:100F080006D000F0EFFA401B0228F5D903204CE088
:100F1800E369226A1343626A43EA8213A26A5208A7
:100F2800013A43EA0243E26A43EA0263264A53600B
:100F3800264B01221A6000F0D5FA0446224B1B68A2
:100F480013F0007F06D100F0CDFA001B0228F5D976
:100F580003202AE0002028E0002026E0012B26D0EC
:100F6800194B5B6803F48001E269914221D103F0D7
:100F78003F02216A8A421ED1616A47F6C0721A404E
:100F88008A421AD103F44032A16A8A4217D103F087
:100F98007063E26A934214D1002006E00120704792
:100FA800012002E0012000E0002002B070BD012015
:100FB800FBE70120F9E70120F7E70120F5E7012029
:100FC800F3E70120F1E700BF003802406000474224
:100FD800254B9B6803F00C03042B40D0082B40D111
:100FE80070B5214B5A6802F03F025B6813F4800F1A
:100FF80012D01D4B5968C1F3881100231B48A1FB6F
:101008000001FFF7E5F8184B5B68C3F301430133B0
:101018005B00B0FBF3F070BD134B5868C0F3881049
:101028000546002643011B1A66EB0604A10141EAA6
:1010380093619801C01A61EB0401CB0043EA507335
:10104800C4001946601946EB01018B0243EA90532C
:101058008402204619463346FFF7BAF8D3E7034817
:1010680070470348704700BF0038024040787D0150
:101078000024F400002800F09B8070B50446504B13
:101088001B6803F00F038B4208D2CBB24C4A137093
:10109800136803F00F038B4240F08C80236813F031
:1010A800020F17D013F0040F04D0464A936843F494
:1010B800E0539360236813F0080F04D0414A936803
:1010C80043F4604393603F4A936823F0F003A068B9
:1010D800034393600D46236813F0010F32D0636811
:1010E800012B21D09A1E012A25D9364A126812F0FE
:1010F800020F61D033498A6822F0030213438B60E0
:1011080000F0F0F906462F4B9B6803F00C03626869
:10111800B3EB820F16D000F0E5F9801B41F288335B
:101128009842F0D9032042E0264A126812F4003FA0
:10113800E0D101203BE0234A126812F0007FD9D1A8
:10114800012034E01E4B1B6803F00F03AB4207D9A4
:10115800EAB21B4B1A701B6803F00F03AB422DD188
:10116800236813F0040F06D0164A936823F4E0535B
:10117800E1680B439360236813F0080F07D0114A06
:10118800936823F46043216943EAC1039360FFF73E
:101198001FFF0C4B9B68C3F303130B4AD35CD84067
:1011A8000A4B18600A4B186800F050F9002070BD0F
:1011B800012070470120FAE70120F8E70120F6E74F
:1011C800003C0240003802400418000808000020D3
:1011D8000400002000230F2B00F2C480F0B583B078
:1011E80039E0042200E00022B2403A4302355E4E64
:1011F80046F825205D4A1568E24302EA05064F686D
:1012080017F4803F01D044EA0506584D2E606D68FA
:1012180002EA05064F6817F4003F01D044EA0506C4
:10122800524D6E60AD6802EA05064F6817F4801FDC
:1012380001D044EA05064D4DAE60ED682A404E687F
:1012480016F4001F01D044EA0502484CE26001335D
:101258000F2B00F2858001229A400C681440A242AC
:10126800F5D14D686E1E012E03D9112D01D0122D16
:1012780012D186685F000325BD4026EA0506CD68C1
:10128800BD4035438560466826EA02064D68C5F3C9
:1012980000129A4032434260C5685F000322BA4098
:1012A800D24315408E68BE402E43C6604D68022D5D
:1012B80001D0122D13D1DE08083650F826E003F0CD
:1012C80007054FEA850C0F2505FA0CF52EEA050EE1
:1012D8000D6905FA0CF545EA0E0540F82650056833
:1012E8002A404D6805F00305BD402A4302604A685C
:1012F80012F0805FABD0002201921D4A556C45F474
:1013080080455564526C02F480420192019A9D080E
:10131800AE1C154A52F8267003F0030296000F22FD
:10132800B24027EA0207134A90423FF45CAF02F545
:10133800806290420ED002F5806290420CD002F595
:10134800806290420AD002F5806290423FF449AF31
:10135800072249E7012247E7022245E7032243E73C
:1013680003B0F0BD704700BF00380140003C0140A9
:1013780000380240000002400369194201D00120F0
:101388007047002070470AB1816170470904816184
:1013980070470000074AD36823F4E0631B041B0C62
:1013A800000200F4E060184340F0BF6040F40030F1
:1013B800D060704700ED00E030B4174BDB68C3F332
:1013C8000223C3F10704042C28BF04241D1D062D85
:1013D80001D9033B00E000234FF0FF3505FA04F480
:1013E80021EA0401994005FA03F322EA03031943A9
:1013F800002809DB0901C9B200F1604000F561402D
:1014080080F8001330BC704700F00F000901C9B222
:10141800024B1954F6E700BF00ED00E014ED00E0C0
:101428000138B0F1807F0AD2064B5860064AF02195
:1014380082F823100020986007221A607047012064
:10144800704700BF10E000E000ED00E010B5044672
:101458000E4B18784FF47A73B3FBF0F30C4A10680C
:10146800B0FBF3F0FFF7DCFF68B90F2C01D90120BE
:101478000AE0002221464FF0FF30FFF79DFF054BA1
:101488001C60002000E0012010BD00BF000000200B
:10149800080000200400002008B50B4B1A6842F42D
:1014A80000721A601A6842F480621A601A6842F47C
:1014B80080721A600320FFF76DFF0020FFF7C6FF58
:1014C800FFF78EF8002008BD003C0240034A11686F
:1014D800034B1B780B441360704700BF28000020A3
:1014E80000000020014B1868704700BF280000204A
:1014F80038B50446FFF7F6FF0546B4F1FF3F02D0C2
:10150800044B1B781C44FFF7EDFF401BA042FAD3A5
:1015180038BD00BF00000020054BD3F8882042F4F6
:101528007002C3F888204FF000629A60704700BFCD
:1015380000ED00E070B588B000240394049405948D
:101548000694079400941C4B1A6B42F004021A6329
:101558001A6B02F004020092009A01941A6B42F08E
:1015680080021A631A6B02F080020192019A0294B7
:101578001A6B42F001021A631B6B03F0010302931A
:10158800029B0E4E22464FF400513046FFF7FBFEF9
:101598004FF400530393012504950594069403A979
:1015A8003046FFF717FE03950494059403A90448F1
:1015B800FFF710FE08B070BD003802400008024076
:1015C800000002400268094B9A4200D0704782B07E
:1015D80000230193064B5A6C42F001025A645B6C7B
:1015E80003F001030193019B02B070470000014022
:1015F8000038024000B587B000230193029303939B
:101608000493059302680F4B9A4202D007B05DF825
:1016180004FB002300930C4B1A6B42F001021A637F
:101628001B6B03F001030093009B4FF4807301933D
:10163800022302930123059301A90448FFF7CAFD79
:10164800E4E700BF0000014000380240000002400B
:1016580010B596B000241294139414941594109411
:10166800119409940A940B940C940D940E940F946D
:101678002022214601A800F0ADF82D482D4B03602B
:101688000923436084604CF24F33C36004614461B2
:1016980080238361FFF7C2F8002837D14FF48053C5
:1016A800129312A92248FFF799F9002831D120484E
:1016B800FFF7CEF800282FD100231093119310A91B
:1016C8001B48FFF729FA50BB6023099300220A92AE
:1016D8000B920C920D920E920F9209A91448FFF7E3
:1016E80003F9F8B900230193029303930493059334
:1016F8004FF400520692089301A90D48FFF748FAE3
:1017080098B90B48FFF776FF16B010BDFEF75AFFE1
:10171800C4E7FEF757FFCAE7FEF754FFCCE7FEF72A
:1017280051FFD1E7FEF74EFFDCE7FEF74BFFE8E796
:101738002C00002000000140DFF834D0002103E035
:101748000C4B5B58435004310B480C4B42189A42DF
:10175800F6D30B4A02E0002342F8043B094B9A42B5
:10176800F9D3FFF7D9FE00F011F8FEF7FDFE704738
:101778000000022024180008000000200C000020AF
:101788000C0000206C000020FEE7000070B50D4D35
:101798000D4C641BA4100026A64209D10B4D0C4C1D
:1017A80000F020F8641BA4100026A64205D170BDE5
:1017B80055F8043B98470136EEE755F8043B98473F
:1017C8000136F2E71C1800081C1800081C1800084D
:1017D8002018000802440346934200D1704703F8DA
:1017E800011BF9E7F8B500BFF8BC08BC9E46704776
:0C17F800F8B500BFF8BC08BC9E46704766
:1018040000000000000000000102030406070809AC
:08181400F4E9FF7F0100000070
:04181C00BD01000802
:041820009901000822
:0C18240001000000100000000024F4008F
:040000050800174197
:00000001FF
